{
  "contractName": "FlowerCoin",
  "abi": [
    {
      "inputs": [],
      "stateMutability": "nonpayable",
      "type": "constructor"
    },
    {
      "anonymous": false,
      "inputs": [
        {
          "indexed": true,
          "internalType": "address",
          "name": "owner",
          "type": "address"
        },
        {
          "indexed": true,
          "internalType": "address",
          "name": "spender",
          "type": "address"
        },
        {
          "indexed": false,
          "internalType": "uint256",
          "name": "value",
          "type": "uint256"
        }
      ],
      "name": "Approval",
      "type": "event"
    },
    {
      "anonymous": false,
      "inputs": [
        {
          "indexed": true,
          "internalType": "address",
          "name": "from",
          "type": "address"
        },
        {
          "indexed": true,
          "internalType": "address",
          "name": "to",
          "type": "address"
        },
        {
          "indexed": false,
          "internalType": "uint256",
          "name": "value",
          "type": "uint256"
        }
      ],
      "name": "Transfer",
      "type": "event"
    },
    {
      "stateMutability": "payable",
      "type": "fallback",
      "payable": true
    },
    {
      "inputs": [],
      "name": "_totalSupply",
      "outputs": [
        {
          "internalType": "uint256",
          "name": "",
          "type": "uint256"
        }
      ],
      "stateMutability": "view",
      "type": "function",
      "constant": true
    },
    {
      "inputs": [],
      "name": "decimals",
      "outputs": [
        {
          "internalType": "uint8",
          "name": "",
          "type": "uint8"
        }
      ],
      "stateMutability": "view",
      "type": "function",
      "constant": true
    },
    {
      "inputs": [],
      "name": "minter",
      "outputs": [
        {
          "internalType": "address",
          "name": "",
          "type": "address"
        }
      ],
      "stateMutability": "view",
      "type": "function",
      "constant": true
    },
    {
      "inputs": [],
      "name": "name",
      "outputs": [
        {
          "internalType": "string",
          "name": "",
          "type": "string"
        }
      ],
      "stateMutability": "view",
      "type": "function",
      "constant": true
    },
    {
      "inputs": [
        {
          "internalType": "uint256",
          "name": "a",
          "type": "uint256"
        },
        {
          "internalType": "uint256",
          "name": "b",
          "type": "uint256"
        }
      ],
      "name": "safeAdd",
      "outputs": [
        {
          "internalType": "uint256",
          "name": "c",
          "type": "uint256"
        }
      ],
      "stateMutability": "pure",
      "type": "function",
      "constant": true
    },
    {
      "inputs": [
        {
          "internalType": "uint256",
          "name": "a",
          "type": "uint256"
        },
        {
          "internalType": "uint256",
          "name": "b",
          "type": "uint256"
        }
      ],
      "name": "safeDiv",
      "outputs": [
        {
          "internalType": "uint256",
          "name": "c",
          "type": "uint256"
        }
      ],
      "stateMutability": "pure",
      "type": "function",
      "constant": true
    },
    {
      "inputs": [
        {
          "internalType": "uint256",
          "name": "a",
          "type": "uint256"
        },
        {
          "internalType": "uint256",
          "name": "b",
          "type": "uint256"
        }
      ],
      "name": "safeMul",
      "outputs": [
        {
          "internalType": "uint256",
          "name": "c",
          "type": "uint256"
        }
      ],
      "stateMutability": "pure",
      "type": "function",
      "constant": true
    },
    {
      "inputs": [
        {
          "internalType": "uint256",
          "name": "a",
          "type": "uint256"
        },
        {
          "internalType": "uint256",
          "name": "b",
          "type": "uint256"
        }
      ],
      "name": "safeSub",
      "outputs": [
        {
          "internalType": "uint256",
          "name": "c",
          "type": "uint256"
        }
      ],
      "stateMutability": "pure",
      "type": "function",
      "constant": true
    },
    {
      "inputs": [],
      "name": "symbol",
      "outputs": [
        {
          "internalType": "string",
          "name": "",
          "type": "string"
        }
      ],
      "stateMutability": "view",
      "type": "function",
      "constant": true
    },
    {
      "stateMutability": "payable",
      "type": "receive",
      "payable": true
    },
    {
      "inputs": [
        {
          "internalType": "address",
          "name": "receiver",
          "type": "address"
        },
        {
          "internalType": "uint256",
          "name": "amount",
          "type": "uint256"
        }
      ],
      "name": "mint",
      "outputs": [
        {
          "internalType": "bool",
          "name": "success",
          "type": "bool"
        }
      ],
      "stateMutability": "nonpayable",
      "type": "function"
    },
    {
      "inputs": [],
      "name": "totalSupply",
      "outputs": [
        {
          "internalType": "uint256",
          "name": "",
          "type": "uint256"
        }
      ],
      "stateMutability": "view",
      "type": "function",
      "constant": true
    },
    {
      "inputs": [
        {
          "internalType": "address",
          "name": "account",
          "type": "address"
        }
      ],
      "name": "balanceOf",
      "outputs": [
        {
          "internalType": "uint256",
          "name": "balance",
          "type": "uint256"
        }
      ],
      "stateMutability": "view",
      "type": "function",
      "constant": true
    },
    {
      "inputs": [
        {
          "internalType": "address",
          "name": "to",
          "type": "address"
        },
        {
          "internalType": "uint256",
          "name": "amount",
          "type": "uint256"
        }
      ],
      "name": "transfer",
      "outputs": [
        {
          "internalType": "bool",
          "name": "success",
          "type": "bool"
        }
      ],
      "stateMutability": "nonpayable",
      "type": "function"
    },
    {
      "inputs": [
        {
          "internalType": "address",
          "name": "spender",
          "type": "address"
        },
        {
          "internalType": "uint256",
          "name": "amount",
          "type": "uint256"
        }
      ],
      "name": "approve",
      "outputs": [
        {
          "internalType": "bool",
          "name": "success",
          "type": "bool"
        }
      ],
      "stateMutability": "nonpayable",
      "type": "function"
    },
    {
      "inputs": [
        {
          "internalType": "address",
          "name": "from",
          "type": "address"
        },
        {
          "internalType": "address",
          "name": "to",
          "type": "address"
        },
        {
          "internalType": "uint256",
          "name": "amount",
          "type": "uint256"
        }
      ],
      "name": "transferFrom",
      "outputs": [
        {
          "internalType": "bool",
          "name": "success",
          "type": "bool"
        }
      ],
      "stateMutability": "nonpayable",
      "type": "function"
    },
    {
      "inputs": [
        {
          "internalType": "address",
          "name": "owner",
          "type": "address"
        },
        {
          "internalType": "address",
          "name": "spender",
          "type": "address"
        }
      ],
      "name": "allowance",
      "outputs": [
        {
          "internalType": "uint256",
          "name": "remaining",
          "type": "uint256"
        }
      ],
      "stateMutability": "view",
      "type": "function",
      "constant": true
    }
  ],
  "bytecode": "0x60806040526040518060400160405280600281526020017f4643000000000000000000000000000000000000000000000000000000000000815250600090816200004a91906200047b565b506040518060400160405280600a81526020017f466c6f776572436f696e00000000000000000000000000000000000000000000815250600190816200009191906200047b565b5060028060006101000a81548160ff021916908360ff160217905550348015620000ba57600080fd5b5033600460006101000a81548173ffffffffffffffffffffffffffffffffffffffff021916908373ffffffffffffffffffffffffffffffffffffffff1602179055506305f5e10060038190555060035460056000600460009054906101000a900473ffffffffffffffffffffffffffffffffffffffff1673ffffffffffffffffffffffffffffffffffffffff1673ffffffffffffffffffffffffffffffffffffffff16815260200190815260200160002081905550600460009054906101000a900473ffffffffffffffffffffffffffffffffffffffff1673ffffffffffffffffffffffffffffffffffffffff16600073ffffffffffffffffffffffffffffffffffffffff167fddf252ad1be2c89b69c2b068fc378daa952ba7f163c4a11628f55a4df523b3ef600354604051620001f3919062000573565b60405180910390a362000590565b600081519050919050565b7f4e487b7100000000000000000000000000000000000000000000000000000000600052604160045260246000fd5b7f4e487b7100000000000000000000000000000000000000000000000000000000600052602260045260246000fd5b600060028204905060018216806200028357607f821691505b6020821081036200029957620002986200023b565b5b50919050565b60008190508160005260206000209050919050565b60006020601f8301049050919050565b600082821b905092915050565b600060088302620003037fffffffffffffffffffffffffffffffffffffffffffffffffffffffffffffffff82620002c4565b6200030f8683620002c4565b95508019841693508086168417925050509392505050565b6000819050919050565b6000819050919050565b60006200035c62000356620003508462000327565b62000331565b62000327565b9050919050565b6000819050919050565b62000378836200033b565b62000390620003878262000363565b848454620002d1565b825550505050565b600090565b620003a762000398565b620003b48184846200036d565b505050565b5b81811015620003dc57620003d06000826200039d565b600181019050620003ba565b5050565b601f8211156200042b57620003f5816200029f565b6200040084620002b4565b8101602085101562000410578190505b620004286200041f85620002b4565b830182620003b9565b50505b505050565b600082821c905092915050565b6000620004506000198460080262000430565b1980831691505092915050565b60006200046b83836200043d565b9150826002028217905092915050565b620004868262000201565b67ffffffffffffffff811115620004a257620004a16200020c565b5b620004ae82546200026a565b620004bb828285620003e0565b600060209050601f831160018114620004f35760008415620004de578287015190505b620004ea85826200045d565b8655506200055a565b601f19841662000503866200029f565b60005b828110156200052d5784890151825560018201915060208501945060208101905062000506565b868310156200054d578489015162000549601f8916826200043d565b8355505b6001600288020188555050505b505050505050565b6200056d8162000327565b82525050565b60006020820190506200058a600083018462000562565b92915050565b6114fe80620005a06000396000f3fe6080604052600436106100f75760003560e01c806370a082311161008a578063b5931f7c11610059578063b5931f7c14610376578063d05c78da146103b3578063dd62ed3e146103f0578063e6cb90131461042d57610101565b806370a082311461029457806395d89b41146102d1578063a293d1e8146102fc578063a9059cbb1461033957610101565b806323b872dd116100c657806323b872dd146101c4578063313ce567146102015780633eaaf86b1461022c57806340c10f191461025757610101565b806306fdde03146101065780630754617214610131578063095ea7b31461015c57806318160ddd1461019957610101565b3661010157600080fd5b600080fd5b34801561011257600080fd5b5061011b61046a565b6040516101289190610f3b565b60405180910390f35b34801561013d57600080fd5b506101466104f8565b6040516101539190610f9e565b60405180910390f35b34801561016857600080fd5b50610183600480360381019061017e9190611020565b61051e565b604051610190919061107b565b60405180910390f35b3480156101a557600080fd5b506101ae610610565b6040516101bb91906110a5565b60405180910390f35b3480156101d057600080fd5b506101eb60048036038101906101e691906110c0565b610664565b6040516101f8919061107b565b60405180910390f35b34801561020d57600080fd5b506102166108f4565b604051610223919061112f565b60405180910390f35b34801561023857600080fd5b50610241610907565b60405161024e91906110a5565b60405180910390f35b34801561026357600080fd5b5061027e60048036038101906102799190611020565b61090d565b60405161028b919061107b565b60405180910390f35b3480156102a057600080fd5b506102bb60048036038101906102b6919061114a565b610b1b565b6040516102c891906110a5565b60405180910390f35b3480156102dd57600080fd5b506102e6610b64565b6040516102f39190610f3b565b60405180910390f35b34801561030857600080fd5b50610323600480360381019061031e9190611177565b610bf2565b60405161033091906110a5565b60405180910390f35b34801561034557600080fd5b50610360600480360381019061035b9190611020565b610c15565b60405161036d919061107b565b60405180910390f35b34801561038257600080fd5b5061039d60048036038101906103989190611177565b610d9e565b6040516103aa91906110a5565b60405180910390f35b3480156103bf57600080fd5b506103da60048036038101906103d59190611177565b610dc0565b6040516103e791906110a5565b60405180910390f35b3480156103fc57600080fd5b50610417600480360381019061041291906111b7565b610df8565b60405161042491906110a5565b60405180910390f35b34801561043957600080fd5b50610454600480360381019061044f9190611177565b610e7f565b60405161046191906110a5565b60405180910390f35b6001805461047790611226565b80601f01602080910402602001604051908101604052809291908181526020018280546104a390611226565b80156104f05780601f106104c5576101008083540402835291602001916104f0565b820191906000526020600020905b8154815290600101906020018083116104d357829003601f168201915b505050505081565b600460009054906101000a900473ffffffffffffffffffffffffffffffffffffffff1681565b600081600660003373ffffffffffffffffffffffffffffffffffffffff1673ffffffffffffffffffffffffffffffffffffffff16815260200190815260200160002060008573ffffffffffffffffffffffffffffffffffffffff1673ffffffffffffffffffffffffffffffffffffffff168152602001908152602001600020819055508273ffffffffffffffffffffffffffffffffffffffff163373ffffffffffffffffffffffffffffffffffffffff167f8c5be1e5ebec7d5bd14f71427d1e84f3dd0314c0f7b2291e5b200ac8c7c3b925846040516105fe91906110a5565b60405180910390a36001905092915050565b6000600560008073ffffffffffffffffffffffffffffffffffffffff1673ffffffffffffffffffffffffffffffffffffffff1681526020019081526020016000205460035461065f9190611286565b905090565b60006106af600560008673ffffffffffffffffffffffffffffffffffffffff1673ffffffffffffffffffffffffffffffffffffffff1681526020019081526020016000205483610bf2565b600560008673ffffffffffffffffffffffffffffffffffffffff1673ffffffffffffffffffffffffffffffffffffffff16815260200190815260200160002081905550610778600660008673ffffffffffffffffffffffffffffffffffffffff1673ffffffffffffffffffffffffffffffffffffffff16815260200190815260200160002060003373ffffffffffffffffffffffffffffffffffffffff1673ffffffffffffffffffffffffffffffffffffffff1681526020019081526020016000205483610bf2565b600660008673ffffffffffffffffffffffffffffffffffffffff1673ffffffffffffffffffffffffffffffffffffffff16815260200190815260200160002060003373ffffffffffffffffffffffffffffffffffffffff1673ffffffffffffffffffffffffffffffffffffffff16815260200190815260200160002081905550610841600560008573ffffffffffffffffffffffffffffffffffffffff1673ffffffffffffffffffffffffffffffffffffffff1681526020019081526020016000205483610e7f565b600560008573ffffffffffffffffffffffffffffffffffffffff1673ffffffffffffffffffffffffffffffffffffffff168152602001908152602001600020819055508273ffffffffffffffffffffffffffffffffffffffff168473ffffffffffffffffffffffffffffffffffffffff167fddf252ad1be2c89b69c2b068fc378daa952ba7f163c4a11628f55a4df523b3ef846040516108e191906110a5565b60405180910390a3600190509392505050565b600260009054906101000a900460ff1681565b60035481565b60008073ffffffffffffffffffffffffffffffffffffffff168373ffffffffffffffffffffffffffffffffffffffff160361097d576040517f08c379a000000000000000000000000000000000000000000000000000000000815260040161097490611306565b60405180910390fd5b600460009054906101000a900473ffffffffffffffffffffffffffffffffffffffff1673ffffffffffffffffffffffffffffffffffffffff163373ffffffffffffffffffffffffffffffffffffffff1614610a0d576040517f08c379a0000000000000000000000000000000000000000000000000000000008152600401610a0490611398565b60405180910390fd5b610a1982600354610e7f565b600381905550610a68600560008573ffffffffffffffffffffffffffffffffffffffff1673ffffffffffffffffffffffffffffffffffffffff1681526020019081526020016000205483610e7f565b600560008573ffffffffffffffffffffffffffffffffffffffff1673ffffffffffffffffffffffffffffffffffffffff168152602001908152602001600020819055508273ffffffffffffffffffffffffffffffffffffffff16600073ffffffffffffffffffffffffffffffffffffffff167fddf252ad1be2c89b69c2b068fc378daa952ba7f163c4a11628f55a4df523b3ef84604051610b0991906110a5565b60405180910390a36001905092915050565b6000600560008373ffffffffffffffffffffffffffffffffffffffff1673ffffffffffffffffffffffffffffffffffffffff168152602001908152602001600020549050919050565b60008054610b7190611226565b80601f0160208091040260200160405190810160405280929190818152602001828054610b9d90611226565b8015610bea5780601f10610bbf57610100808354040283529160200191610bea565b820191906000526020600020905b815481529060010190602001808311610bcd57829003601f168201915b505050505081565b600082821115610c0157600080fd5b8183610c0d9190611286565b905092915050565b6000610c60600560003373ffffffffffffffffffffffffffffffffffffffff1673ffffffffffffffffffffffffffffffffffffffff1681526020019081526020016000205483610bf2565b600560003373ffffffffffffffffffffffffffffffffffffffff1673ffffffffffffffffffffffffffffffffffffffff16815260200190815260200160002081905550610cec600560008573ffffffffffffffffffffffffffffffffffffffff1673ffffffffffffffffffffffffffffffffffffffff1681526020019081526020016000205483610e7f565b600560008573ffffffffffffffffffffffffffffffffffffffff1673ffffffffffffffffffffffffffffffffffffffff168152602001908152602001600020819055508273ffffffffffffffffffffffffffffffffffffffff163373ffffffffffffffffffffffffffffffffffffffff167fddf252ad1be2c89b69c2b068fc378daa952ba7f163c4a11628f55a4df523b3ef84604051610d8c91906110a5565b60405180910390a36001905092915050565b6000808211610dac57600080fd5b8183610db891906113e7565b905092915050565b60008183610dce9190611418565b90506000831480610de95750818382610de791906113e7565b145b610df257600080fd5b92915050565b6000600660008473ffffffffffffffffffffffffffffffffffffffff1673ffffffffffffffffffffffffffffffffffffffff16815260200190815260200160002060008373ffffffffffffffffffffffffffffffffffffffff1673ffffffffffffffffffffffffffffffffffffffff16815260200190815260200160002054905092915050565b60008183610e8d9190611472565b905082811015610e9c57600080fd5b92915050565b600081519050919050565b600082825260208201905092915050565b60005b83811015610edc578082015181840152602081019050610ec1565b83811115610eeb576000848401525b50505050565b6000601f19601f8301169050919050565b6000610f0d82610ea2565b610f178185610ead565b9350610f27818560208601610ebe565b610f3081610ef1565b840191505092915050565b60006020820190508181036000830152610f558184610f02565b905092915050565b600073ffffffffffffffffffffffffffffffffffffffff82169050919050565b6000610f8882610f5d565b9050919050565b610f9881610f7d565b82525050565b6000602082019050610fb36000830184610f8f565b92915050565b600080fd5b610fc781610f7d565b8114610fd257600080fd5b50565b600081359050610fe481610fbe565b92915050565b6000819050919050565b610ffd81610fea565b811461100857600080fd5b50565b60008135905061101a81610ff4565b92915050565b6000806040838503121561103757611036610fb9565b5b600061104585828601610fd5565b92505060206110568582860161100b565b9150509250929050565b60008115159050919050565b61107581611060565b82525050565b6000602082019050611090600083018461106c565b92915050565b61109f81610fea565b82525050565b60006020820190506110ba6000830184611096565b92915050565b6000806000606084860312156110d9576110d8610fb9565b5b60006110e786828701610fd5565b93505060206110f886828701610fd5565b92505060406111098682870161100b565b9150509250925092565b600060ff82169050919050565b61112981611113565b82525050565b60006020820190506111446000830184611120565b92915050565b6000602082840312156111605761115f610fb9565b5b600061116e84828501610fd5565b91505092915050565b6000806040838503121561118e5761118d610fb9565b5b600061119c8582860161100b565b92505060206111ad8582860161100b565b9150509250929050565b600080604083850312156111ce576111cd610fb9565b5b60006111dc85828601610fd5565b92505060206111ed85828601610fd5565b9150509250929050565b7f4e487b7100000000000000000000000000000000000000000000000000000000600052602260045260246000fd5b6000600282049050600182168061123e57607f821691505b602082108103611251576112506111f7565b5b50919050565b7f4e487b7100000000000000000000000000000000000000000000000000000000600052601160045260246000fd5b600061129182610fea565b915061129c83610fea565b9250828210156112af576112ae611257565b5b828203905092915050565b7f45524332303a206d696e7420746f20746865207a65726f206164647265737300600082015250565b60006112f0601f83610ead565b91506112fb826112ba565b602082019050919050565b6000602082019050818103600083015261131f816112e3565b9050919050565b7f4f6e6c7920746865206d696e7465722063616e2075736520746869732066756e60008201527f6374696f6e2e0000000000000000000000000000000000000000000000000000602082015250565b6000611382602683610ead565b915061138d82611326565b604082019050919050565b600060208201905081810360008301526113b181611375565b9050919050565b7f4e487b7100000000000000000000000000000000000000000000000000000000600052601260045260246000fd5b60006113f282610fea565b91506113fd83610fea565b92508261140d5761140c6113b8565b5b828204905092915050565b600061142382610fea565b915061142e83610fea565b9250817fffffffffffffffffffffffffffffffffffffffffffffffffffffffffffffffff048311821515161561146757611466611257565b5b828202905092915050565b600061147d82610fea565b915061148883610fea565b9250827fffffffffffffffffffffffffffffffffffffffffffffffffffffffffffffffff038211156114bd576114bc611257565b5b82820190509291505056fea26469706673582212208fb22f51b44bd69e5cd35e0afec7458dc3b3396063642bc42d23d83cf96bce4764736f6c634300080f0033",
  "immutableReferences": {},
  "source": "// SPDX-License-Identifier: MIT\r\npragma solidity ^0.8.0;\r\nimport \"./Context.sol\";\r\n \r\n// Safe Math interface \r\ncontract SafeMath {\r\n \r\n    function safeAdd(uint a, uint b) public pure returns (uint c) {\r\n        c = a + b;\r\n        require(c >= a);\r\n    }\r\n \r\n    function safeSub(uint a, uint b) public pure returns (uint c) {\r\n        require(b <= a);\r\n        c = a - b;\r\n    }\r\n \r\n    function safeMul(uint a, uint b) public pure returns (uint c) {\r\n        c = a * b;\r\n        require(a == 0 || c / a == b);\r\n    }\r\n \r\n    function safeDiv(uint a, uint b) public pure returns (uint c) {\r\n        require(b > 0);\r\n        c = a / b;\r\n    }\r\n}\r\n \r\n// source: https://github.com/OpenZeppelin/openzeppelin-contracts/blob/master/contracts/token/ERC20/IERC20.sol\r\ninterface IERC20 {\r\n    /**\r\n     * @dev Emitted when `value` amount are moved from one account (`from`) to\r\n     * another (`to`).\r\n     *\r\n     * Note that `value` may be zero.\r\n     */\r\n    event Transfer(address indexed from, address indexed to, uint256 value);\r\n\r\n    /**\r\n     * @dev Emitted when the allowance of a `spender` for an `owner` is set by\r\n     * a call to {approve}. `value` is the new allowance.\r\n     */\r\n    event Approval(address indexed owner, address indexed spender, uint256 value);\r\n\r\n    /**\r\n     * @dev Returns the amount of amount in existence.\r\n     */\r\n    function totalSupply() external view returns (uint256);\r\n\r\n    /**\r\n     * @dev Returns the amount of amount owned by `account`.\r\n     */\r\n    function balanceOf(address account) external view returns (uint256);\r\n\r\n    /**\r\n     * @dev Moves `amount` amount from the caller's account to `to`.\r\n     *\r\n     * Returns a boolean value indicating whether the operation succeeded.\r\n     *\r\n     * Emits a {Transfer} event.\r\n     */\r\n    function transfer(address to, uint256 amount) external returns (bool);\r\n\r\n    /**\r\n     * @dev Returns the remaining number of amount that `spender` will be\r\n     * allowed to spend on behalf of `owner` through {transferFrom}. This is\r\n     * zero by default.\r\n     *\r\n     * This value changes when {approve} or {transferFrom} are called.\r\n     */\r\n    function allowance(address owner, address spender) external view returns (uint256);\r\n\r\n    /**\r\n     * @dev Sets `amount` as the allowance of `spender` over the caller's amount.\r\n     *\r\n     * Returns a boolean value indicating whether the operation succeeded.\r\n     *\r\n     * IMPORTANT: Beware that changing an allowance with this method brings the risk\r\n     * that someone may use both the old and the new allowance by unfortunate\r\n     * transaction ordering. One possible solution to mitigate this race\r\n     * condition is to first reduce the spender's allowance to 0 and set the\r\n     * desired value afterwards:\r\n     * https://github.com/ethereum/EIPs/issues/20#issuecomment-263524729\r\n     *\r\n     * Emits an {Approval} event.\r\n     */\r\n    function approve(address spender, uint256 amount) external returns (bool);\r\n\r\n    /**\r\n     * @dev Moves `amount` amount from `from` to `to` using the\r\n     * allowance mechanism. `amount` is then deducted from the caller's\r\n     * allowance.\r\n     *\r\n     * Returns a boolean value indicating whether the operation succeeded.\r\n     *\r\n     * Emits a {Transfer} event.\r\n     */\r\n    function transferFrom(\r\n        address from,\r\n        address to,\r\n        uint256 amount\r\n    ) external returns (bool);\r\n}\r\n\r\n// Based off: https://github.com/OpenZeppelin/openzeppelin-contracts/blob/master/contracts/token/ERC20/ERC20.sol\r\ncontract FlowerCoin is IERC20, SafeMath {\r\n    string public symbol = \"FC\";\r\n    string public name  = \"FlowerCoin\";\r\n    uint8 public decimals = 2;\r\n    uint public _totalSupply;\r\n    \r\n    address public minter;\r\n    mapping(address => uint) private _balances;\r\n    mapping(address => mapping(address => uint)) _allowed;\r\n \r\n    constructor() {\r\n        minter = msg.sender;\r\n        _totalSupply = 100000000;\r\n        _balances[minter] = _totalSupply;\r\n        emit Transfer(address(0), minter, _totalSupply);\r\n    }\r\n\r\n    function mint(address receiver, uint256 amount) public virtual returns (bool success) {\r\n        require(receiver != address(0), \"ERC20: mint to the zero address\");\r\n        require(msg.sender == minter, \"Only the minter can use this function.\");\r\n        _totalSupply = safeAdd(amount, _totalSupply);\r\n        _balances[receiver] = safeAdd(_balances[receiver], amount);\r\n\r\n        emit Transfer(address(0), receiver, amount);\r\n        return true;\r\n    }\r\n \r\n    function totalSupply() public view returns (uint) {\r\n        return _totalSupply  - _balances[address(0)];\r\n    }\r\n \r\n    function balanceOf(address account) public view returns (uint balance) {\r\n        return _balances[account];\r\n    }\r\n \r\n    function transfer(address to, uint amount) public returns (bool success) {\r\n        _balances[msg.sender] = safeSub(_balances[msg.sender], amount);\r\n        _balances[to] = safeAdd(_balances[to], amount);\r\n        emit Transfer(msg.sender, to, amount);\r\n        return true;\r\n    }\r\n \r\n    function approve(address spender, uint amount) public returns (bool success) {\r\n        _allowed[msg.sender][spender] = amount;\r\n        emit Approval(msg.sender, spender, amount);\r\n        return true;\r\n    }\r\n \r\n    function transferFrom(address from, address to, uint amount) public returns (bool success) {\r\n        _balances[from] = safeSub(_balances[from], amount);\r\n        _allowed[from][msg.sender] = safeSub(_allowed[from][msg.sender], amount);\r\n        _balances[to] = safeAdd(_balances[to], amount);\r\n        emit Transfer(from, to, amount);\r\n        return true;\r\n    }\r\n \r\n    function allowance(address owner, address spender) public view returns (uint remaining) {\r\n        return _allowed[owner][spender];\r\n    }\r\n\r\n\r\n    fallback() external payable {\r\n        revert();\r\n    }\r\n\r\n    receive() external payable {\r\n        revert();\r\n    }\r\n}",
  "sourcePath": "C:\\Users\\matte\\GitHub\\FlowerCoin\\contracts\\FlowerCoin.sol",
  "compiler": {
    "name": "solc",
    "version": "0.8.15+commit.e14f2714.Emscripten.clang"
  },
  "schemaVersion": "3.4.8",
  "updatedAt": "2022-08-23T22:17:11.173Z",
  "networkType": "ethereum",
  "devdoc": {
    "kind": "dev",
    "methods": {
      "allowance(address,address)": {
        "details": "Returns the remaining number of amount that `spender` will be allowed to spend on behalf of `owner` through {transferFrom}. This is zero by default. This value changes when {approve} or {transferFrom} are called."
      },
      "approve(address,uint256)": {
        "details": "Sets `amount` as the allowance of `spender` over the caller's amount. Returns a boolean value indicating whether the operation succeeded. IMPORTANT: Beware that changing an allowance with this method brings the risk that someone may use both the old and the new allowance by unfortunate transaction ordering. One possible solution to mitigate this race condition is to first reduce the spender's allowance to 0 and set the desired value afterwards: https://github.com/ethereum/EIPs/issues/20#issuecomment-263524729 Emits an {Approval} event."
      },
      "balanceOf(address)": {
        "details": "Returns the amount of amount owned by `account`."
      },
      "totalSupply()": {
        "details": "Returns the amount of amount in existence."
      },
      "transfer(address,uint256)": {
        "details": "Moves `amount` amount from the caller's account to `to`. Returns a boolean value indicating whether the operation succeeded. Emits a {Transfer} event."
      },
      "transferFrom(address,address,uint256)": {
        "details": "Moves `amount` amount from `from` to `to` using the allowance mechanism. `amount` is then deducted from the caller's allowance. Returns a boolean value indicating whether the operation succeeded. Emits a {Transfer} event."
      }
    },
    "version": 1
  },
  "userdoc": {
    "kind": "user",
    "methods": {},
    "version": 1
  }
}