{
  "contractName": "SafeMath",
  "abi": [
    {
      "inputs": [
        {
          "internalType": "uint256",
          "name": "a",
          "type": "uint256"
        },
        {
          "internalType": "uint256",
          "name": "b",
          "type": "uint256"
        }
      ],
      "name": "safeAdd",
      "outputs": [
        {
          "internalType": "uint256",
          "name": "c",
          "type": "uint256"
        }
      ],
      "stateMutability": "pure",
      "type": "function"
    },
    {
      "inputs": [
        {
          "internalType": "uint256",
          "name": "a",
          "type": "uint256"
        },
        {
          "internalType": "uint256",
          "name": "b",
          "type": "uint256"
        }
      ],
      "name": "safeSub",
      "outputs": [
        {
          "internalType": "uint256",
          "name": "c",
          "type": "uint256"
        }
      ],
      "stateMutability": "pure",
      "type": "function"
    },
    {
      "inputs": [
        {
          "internalType": "uint256",
          "name": "a",
          "type": "uint256"
        },
        {
          "internalType": "uint256",
          "name": "b",
          "type": "uint256"
        }
      ],
      "name": "safeMul",
      "outputs": [
        {
          "internalType": "uint256",
          "name": "c",
          "type": "uint256"
        }
      ],
      "stateMutability": "pure",
      "type": "function"
    },
    {
      "inputs": [
        {
          "internalType": "uint256",
          "name": "a",
          "type": "uint256"
        },
        {
          "internalType": "uint256",
          "name": "b",
          "type": "uint256"
        }
      ],
      "name": "safeDiv",
      "outputs": [
        {
          "internalType": "uint256",
          "name": "c",
          "type": "uint256"
        }
      ],
      "stateMutability": "pure",
      "type": "function"
    }
  ],
  "bytecode": "0x608060405234801561001057600080fd5b506103ff806100206000396000f3fe608060405234801561001057600080fd5b506004361061004c5760003560e01c8063a293d1e814610051578063b5931f7c14610081578063d05c78da146100b1578063e6cb9013146100e1575b600080fd5b61006b600480360381019061006691906101ec565b610111565b604051610078919061023b565b60405180910390f35b61009b600480360381019061009691906101ec565b610134565b6040516100a8919061023b565b60405180910390f35b6100cb60048036038101906100c691906101ec565b610156565b6040516100d8919061023b565b60405180910390f35b6100fb60048036038101906100f691906101ec565b61018e565b604051610108919061023b565b60405180910390f35b60008282111561012057600080fd5b818361012c9190610285565b905092915050565b600080821161014257600080fd5b818361014e91906102e8565b905092915050565b600081836101649190610319565b9050600083148061017f575081838261017d91906102e8565b145b61018857600080fd5b92915050565b6000818361019c9190610373565b9050828110156101ab57600080fd5b92915050565b600080fd5b6000819050919050565b6101c9816101b6565b81146101d457600080fd5b50565b6000813590506101e6816101c0565b92915050565b60008060408385031215610203576102026101b1565b5b6000610211858286016101d7565b9250506020610222858286016101d7565b9150509250929050565b610235816101b6565b82525050565b6000602082019050610250600083018461022c565b92915050565b7f4e487b7100000000000000000000000000000000000000000000000000000000600052601160045260246000fd5b6000610290826101b6565b915061029b836101b6565b9250828210156102ae576102ad610256565b5b828203905092915050565b7f4e487b7100000000000000000000000000000000000000000000000000000000600052601260045260246000fd5b60006102f3826101b6565b91506102fe836101b6565b92508261030e5761030d6102b9565b5b828204905092915050565b6000610324826101b6565b915061032f836101b6565b9250817fffffffffffffffffffffffffffffffffffffffffffffffffffffffffffffffff048311821515161561036857610367610256565b5b828202905092915050565b600061037e826101b6565b9150610389836101b6565b9250827fffffffffffffffffffffffffffffffffffffffffffffffffffffffffffffffff038211156103be576103bd610256565b5b82820190509291505056fea264697066735822122085d6d3aeeaedf922f0a506fba4d3b5913411832aa89cc29e64f1dd435c30e0eb64736f6c634300080f0033",
  "immutableReferences": {},
  "source": "// SPDX-License-Identifier: MIT\r\npragma solidity ^0.8.0;\r\nimport \"./Context.sol\";\r\n \r\n// Safe Math interface \r\ncontract SafeMath {\r\n \r\n    function safeAdd(uint a, uint b) public pure returns (uint c) {\r\n        c = a + b;\r\n        require(c >= a);\r\n    }\r\n \r\n    function safeSub(uint a, uint b) public pure returns (uint c) {\r\n        require(b <= a);\r\n        c = a - b;\r\n    }\r\n \r\n    function safeMul(uint a, uint b) public pure returns (uint c) {\r\n        c = a * b;\r\n        require(a == 0 || c / a == b);\r\n    }\r\n \r\n    function safeDiv(uint a, uint b) public pure returns (uint c) {\r\n        require(b > 0);\r\n        c = a / b;\r\n    }\r\n}\r\n \r\n// source: https://github.com/OpenZeppelin/openzeppelin-contracts/blob/master/contracts/token/ERC20/IERC20.sol\r\ninterface IERC20 {\r\n    /**\r\n     * @dev Emitted when `value` amount are moved from one account (`from`) to\r\n     * another (`to`).\r\n     *\r\n     * Note that `value` may be zero.\r\n     */\r\n    event Transfer(address indexed from, address indexed to, uint256 value);\r\n\r\n    /**\r\n     * @dev Emitted when the allowance of a `spender` for an `owner` is set by\r\n     * a call to {approve}. `value` is the new allowance.\r\n     */\r\n    event Approval(address indexed owner, address indexed spender, uint256 value);\r\n\r\n    /**\r\n     * @dev Returns the amount of amount in existence.\r\n     */\r\n    function totalSupply() external view returns (uint256);\r\n\r\n    /**\r\n     * @dev Returns the amount of amount owned by `account`.\r\n     */\r\n    function balanceOf(address account) external view returns (uint256);\r\n\r\n    /**\r\n     * @dev Moves `amount` amount from the caller's account to `to`.\r\n     *\r\n     * Returns a boolean value indicating whether the operation succeeded.\r\n     *\r\n     * Emits a {Transfer} event.\r\n     */\r\n    function transfer(address to, uint256 amount) external returns (bool);\r\n\r\n    /**\r\n     * @dev Returns the remaining number of amount that `spender` will be\r\n     * allowed to spend on behalf of `owner` through {transferFrom}. This is\r\n     * zero by default.\r\n     *\r\n     * This value changes when {approve} or {transferFrom} are called.\r\n     */\r\n    function allowance(address owner, address spender) external view returns (uint256);\r\n\r\n    /**\r\n     * @dev Sets `amount` as the allowance of `spender` over the caller's amount.\r\n     *\r\n     * Returns a boolean value indicating whether the operation succeeded.\r\n     *\r\n     * IMPORTANT: Beware that changing an allowance with this method brings the risk\r\n     * that someone may use both the old and the new allowance by unfortunate\r\n     * transaction ordering. One possible solution to mitigate this race\r\n     * condition is to first reduce the spender's allowance to 0 and set the\r\n     * desired value afterwards:\r\n     * https://github.com/ethereum/EIPs/issues/20#issuecomment-263524729\r\n     *\r\n     * Emits an {Approval} event.\r\n     */\r\n    function approve(address spender, uint256 amount) external returns (bool);\r\n\r\n    /**\r\n     * @dev Moves `amount` amount from `from` to `to` using the\r\n     * allowance mechanism. `amount` is then deducted from the caller's\r\n     * allowance.\r\n     *\r\n     * Returns a boolean value indicating whether the operation succeeded.\r\n     *\r\n     * Emits a {Transfer} event.\r\n     */\r\n    function transferFrom(\r\n        address from,\r\n        address to,\r\n        uint256 amount\r\n    ) external returns (bool);\r\n}\r\n\r\n// Based off: https://github.com/OpenZeppelin/openzeppelin-contracts/blob/master/contracts/token/ERC20/ERC20.sol\r\ncontract FlowerCoin is IERC20, SafeMath {\r\n    string public symbol = \"FC\";\r\n    string public name  = \"FlowerCoin\";\r\n    uint8 public decimals = 2;\r\n    uint public _totalSupply;\r\n    \r\n    address public minter;\r\n    mapping(address => uint) private _balances;\r\n    mapping(address => mapping(address => uint)) _allowed;\r\n \r\n    constructor() {\r\n        minter = msg.sender;\r\n        _totalSupply = 100000000;\r\n        _balances[minter] = _totalSupply;\r\n        emit Transfer(address(0), minter, _totalSupply);\r\n    }\r\n\r\n    function mint(address receiver, uint256 amount) public virtual returns (bool success) {\r\n        require(receiver != address(0), \"ERC20: mint to the zero address\");\r\n        require(msg.sender == minter, \"Only the minter can use this function.\");\r\n        _totalSupply = safeAdd(amount, _totalSupply);\r\n        _balances[receiver] = safeAdd(_balances[receiver], amount);\r\n\r\n        emit Transfer(address(0), receiver, amount);\r\n        return true;\r\n    }\r\n \r\n    function totalSupply() public view returns (uint) {\r\n        return _totalSupply  - _balances[address(0)];\r\n    }\r\n \r\n    function balanceOf(address account) public view returns (uint balance) {\r\n        return _balances[account];\r\n    }\r\n \r\n    function transfer(address to, uint amount) public returns (bool success) {\r\n        _balances[msg.sender] = safeSub(_balances[msg.sender], amount);\r\n        _balances[to] = safeAdd(_balances[to], amount);\r\n        emit Transfer(msg.sender, to, amount);\r\n        return true;\r\n    }\r\n \r\n    function approve(address spender, uint amount) public returns (bool success) {\r\n        _allowed[msg.sender][spender] = amount;\r\n        emit Approval(msg.sender, spender, amount);\r\n        return true;\r\n    }\r\n \r\n    function transferFrom(address from, address to, uint amount) public returns (bool success) {\r\n        _balances[from] = safeSub(_balances[from], amount);\r\n        _allowed[from][msg.sender] = safeSub(_allowed[from][msg.sender], amount);\r\n        _balances[to] = safeAdd(_balances[to], amount);\r\n        emit Transfer(from, to, amount);\r\n        return true;\r\n    }\r\n \r\n    function allowance(address owner, address spender) public view returns (uint remaining) {\r\n        return _allowed[owner][spender];\r\n    }\r\n\r\n\r\n    fallback() external payable {\r\n        revert();\r\n    }\r\n\r\n    receive() external payable {\r\n        revert();\r\n    }\r\n}",
  "sourcePath": "C:\\Users\\matte\\GitHub\\FlowerCoin\\contracts\\FlowerCoin.sol",
  "compiler": {
    "name": "solc",
    "version": "0.8.15+commit.e14f2714.Emscripten.clang"
  },
  "schemaVersion": "3.4.8",
  "updatedAt": "2022-08-23T22:16:28.463Z",
  "devdoc": {
    "kind": "dev",
    "methods": {},
    "version": 1
  },
  "userdoc": {
    "kind": "user",
    "methods": {},
    "version": 1
  }
}